:10056800C0F9A4B0999282F880908883C6A1868E3B
:03000600011D00D9
:10053800E4F51EF51AF519F51FF51CF51B751B0CCE
:10054800751C22751F3275190C751A23751E0B221E
:040514007F147E00D2
:10051800E4FDFCC3ED9FEC9E5015E4FBFA0BBB0019
:0F052800010AEB646E4A70F50DBD00010C80E412
:0105370022A1
:10055800758901758CD8758AF0D2AFD2A9D28C2250
:0F057800D2AFD2A8D288D2AAD28AD2B9D2B82210
:03000B000204E10B
:1004E100C0E0758CD8758AF0051DE51D6464702027
:1004F100F51D051FE51F643C7016F51F051CE51C65
:10050100643C700CF51C051BE51B64187002F51B9F
:03051100D0E03205
:03000300020016E2
:10001600C0E0C0F0C083C082C0D075D000C000C0B0
:0D00260001C002C003C004C005C006C00731
:10003300750820750900750A00750B00750C0075AD
:100043000820E4F9E9FF7E00C3940674809480409D
:100053000302010A750A00EF7004E51F8026EF64AE
:10006300014E7004E51F8030EF64024E7004E51CFE
:100073008012EF64034E7004E51C801CEF64044E91
:10008300700EE51B75F00A8485F009750A0180136B
:10009300EF64054E700AE51B75F00A84F5098003C9
:1000A3007509FF7580FFE50A6401700CE509900589
:1000B30068936480F50D8008E50990056893F50D54
:1000C300E9C313650B7022050CE50C64C87002F5D7
:1000D3000C7E00C374809480400FE50C946474809C
:1000E30094805005750DFF8000850D808508A0AFB5
:1000F300087801EF08800103D8FDF5087F027E0030
:100103001205180902004720900612051430907852
:1001130020911312051420910D050BE50B64037058
:1001230002F50B3091FD30920302004212051430A8
:100133009203020042AF0BEF7020051FE51F643CE2
:10014300703EF51F051CE51C643C7034F51C051B53
:10015300E51B6418702AF51B8026EF64014E7016A8
:10016300051CE51C643C7018F51C051BE51B641895
:10017300700EF51B800A051BE51B64187002F51B46
:0801830030920302004280F8F3
:10018B00D007D006D005D004D003D002D001D000C8
:0B019B00D0D0D082D083D0F0D0E03272
:030013000201A641
:1001A600C0E0C0F0C083C082C0D075D000C000C01F
:0D01B60001C002C003C004C005C006C007A0
:1001C300750E20750F0075100075110075120075FE
:1001D3000E20E4F9E9FF7E00C39406748094804006
:1001E3000302029A751000EF7004E51E8026EF6487
:1001F300014E7004E51E8030EF64024E7004E51A70
:100203008012EF64034E7004E51A801CEF64044E01
:10021300700EE51975F00A8485F00F7510018013CF
:10022300EF64054E700AE51975F00A84F50F800333
:10023300750FFF7580FFE5106401700CE50F9005E5
:1002430068936480F5138008E50F90056893F513B0
:10025300E9C313651170220512E51264C87002F533
:10026300127E00C374809480400FE51294647480FE
:10027300948050057513FF8000851380850EA0AF11
:100283000E7801EF08800103D8FDF50E7F027E0092
:10029300120518090201D720900612051430907830
:1002A30020911312051420910D0511E511640370BB
:1002B30002F5113091FD3092030201D21205143080
:1002C30092030201D2AF11EF7020051EE51E643CBC
:1002D300703EF51E051AE51A643C7034F51A0519CB
:1002E300E5196418702AF5198026EF64014E70161B
:1002F300051AE51A643C7018F51A0519E51964180E
:10030300700EF519800A0519E51964187002F519BC
:080313003092030201D280F8D0
:10031B00D007D006D005D004D003D002D001D00036
:0B032B00D0D0D082D083D0F0D0E032E0
:10033600751420E4F515F516F517F518751420E46F
:10034600F9E9FF7E00C3940674809480400302039B
:10035600DEE4F516EF7004E51F8026EF64014E70AB
:1003660004E51F8030EF64024E7004E51C8012EF36
:1003760064034E7004E51C801CEF64044E700EE5A9
:100386001B75F00A8485F0157516018013EF640558
:100396004E700AE51B75F00A84F51580037515FF86
:1003A6007580FFE5166401700CE515900568936489
:1003B60080F5808008E51590056893F5808514A082
:1003C600AF147801EF08800103D8FDF5147F027E93
:1003D6000012051809020347AF177E00EF7004D21A
:1003E6009780230518E51864147002F5187C00C37D
:1003F60074809480400EE5189405748094805004AF
:10040600C2978002D297EF4E7021E51B65196003F3
:10041600020342E51C651A6003020342E51F651EDE
:1004260060030203427517010203423090093091BE
:1004360006309203020342E4F5177F14FE120518F4
:0F0446003090030203427405251AF51A0203428F
:0F058700120538120558120578120514020336B2
:03000000020455A2
:0C045500787FE4F6D8FD75811F02049C3E
:10046100020587E493A3F8E493A34003F68001F225
:1004710008DFF48029E493A3F85407240CC8C3339C
:10048100C4540F4420C8834004F456800146F6DF6B
:10049100E4800B0102040810204080900006E47EF5
:1004A100019360BCA3FF543F30E509541FFEE49360
:1004B100A360010ECF54C025E060A840B8E493A327
:1004C100FAE493A3F8E493A3C8C582C8CAC583CA52
:1004D100F0A3C8C582C8CAC583CADFE9DEE780BE0A
:0100090000F6
:00000001FF
